{
   "contractName": "Payment",
   "abi": [
      {
         "inputs": [],
         "stateMutability": "nonpayable",
         "type": "constructor"
      },
      {
         "inputs": [],
         "name": "owner",
         "outputs": [
            {
               "internalType": "address",
               "name": "",
               "type": "address"
            }
         ],
         "stateMutability": "view",
         "type": "function"
      },
      {
         "inputs": [],
         "name": "sen",
         "outputs": [
            {
               "internalType": "address",
               "name": "",
               "type": "address"
            }
         ],
         "stateMutability": "view",
         "type": "function"
      },
      {
         "inputs": [],
         "name": "val",
         "outputs": [
            {
               "internalType": "uint256",
               "name": "",
               "type": "uint256"
            }
         ],
         "stateMutability": "view",
         "type": "function"
      },
      {
         "stateMutability": "payable",
         "type": "receive"
      },
      {
         "inputs": [],
         "name": "pay",
         "outputs": [],
         "stateMutability": "payable",
         "type": "function"
      }
   ],
   "bytecode": "0x608060405234801561001057600080fd5b50336000806101000a81548173ffffffffffffffffffffffffffffffffffffffff021916908373ffffffffffffffffffffffffffffffffffffffff16021790555061037b806100606000396000f3fe6080604052600436106100435760003560e01c80631b9265b81461004f5780633c6bb4361461005957806360341e63146100845780638da5cb5b146100af5761004a565b3661004a57005b600080fd5b6100576100da565b005b34801561006557600080fd5b5061006e6101ce565b60405161007b91906102dd565b60405180910390f35b34801561009057600080fd5b506100996101d4565b6040516100a691906102a2565b60405180910390f35b3480156100bb57600080fd5b506100c46101fa565b6040516100d191906102a2565b60405180910390f35b6000341161011d576040517f08c379a0000000000000000000000000000000000000000000000000000000008152600401610114906102bd565b60405180910390fd5b33600260006101000a81548173ffffffffffffffffffffffffffffffffffffffff021916908373ffffffffffffffffffffffffffffffffffffffff1602179055503460018190555060008054906101000a900473ffffffffffffffffffffffffffffffffffffffff1673ffffffffffffffffffffffffffffffffffffffff166108fc479081150290604051600060405180830381858888f193505050501580156101cb573d6000803e3d6000fd5b50565b60015481565b600260009054906101000a900473ffffffffffffffffffffffffffffffffffffffff1681565b60008054906101000a900473ffffffffffffffffffffffffffffffffffffffff1681565b61022781610309565b82525050565b600061023a6024836102f8565b91507f5061796d656e742076616c7565206d757374206265206772656174657220746860008301527f616e2030000000000000000000000000000000000000000000000000000000006020830152604082019050919050565b61029c8161033b565b82525050565b60006020820190506102b7600083018461021e565b92915050565b600060208201905081810360008301526102d68161022d565b9050919050565b60006020820190506102f26000830184610293565b92915050565b600082825260208201905092915050565b60006103148261031b565b9050919050565b600073ffffffffffffffffffffffffffffffffffffffff82169050919050565b600081905091905056fea2646970667358221220741ba88ccd2fe3972afb51d5d0253d6d2ec2696ee34796ad1420ad708952dcca64736f6c63430008000033",
   "immutableReferences": {},
   "source": "// SPDX-License-Identifier: MIT\r\npragma solidity ^0.8.0;\r\n\r\ncontract Payment {\r\n    address public owner;\r\n    uint public val;\r\n    address public sen;\r\n\r\n    constructor() {\r\n        owner = msg.sender;\r\n    }\r\n\r\n    receive() external payable {}\r\n\r\n    function pay() public payable {\r\n        require(msg.value > 0, \"Payment value must be greater than 0\");\r\n        sen = msg.sender;\r\n        val= msg.value;\r\n        payable(owner).transfer(address(this).balance);\r\n    }\r\n}\r\n\r\n\r\n\r\n \r\n  \r\n\r\n  \r\n   \r\n   \r\n",
   "sourcePath": "D:\\block chain\\the-farm\\farm-contract\\contracts\\Payment.sol",
   "compiler": {
      "name": "solc",
      "version": "0.8.0+commit.c7dfd78e.Emscripten.clang"
   },
   "schemaVersion": "3.4.16",
   "updatedAt": "2023-10-23T10:26:33.376Z",
   "devdoc": {
      "kind": "dev",
      "methods": {},
      "version": 1
   },
   "userdoc": {
      "kind": "user",
      "methods": {},
      "version": 1
   }
}